{
  "_format": "hh-sol-artifact-1",
  "contractName": "ERC20Template",
  "sourceName": "contracts/ERC20Template.sol",
  "abi": [
    {
      "inputs": [
        {
          "internalType": "string",
          "name": "_name",
          "type": "string"
        },
        {
          "internalType": "string",
          "name": "_symbol",
          "type": "string"
        },
        {
          "internalType": "uint256",
          "name": "_amount",
          "type": "uint256"
        }
      ],
      "stateMutability": "nonpayable",
      "type": "constructor"
    },
    {
      "anonymous": false,
      "inputs": [
        {
          "indexed": true,
          "internalType": "address",
          "name": "owner",
          "type": "address"
        },
        {
          "indexed": true,
          "internalType": "address",
          "name": "spender",
          "type": "address"
        },
        {
          "indexed": false,
          "internalType": "uint256",
          "name": "value",
          "type": "uint256"
        }
      ],
      "name": "Approval",
      "type": "event"
    },
    {
      "anonymous": false,
      "inputs": [
        {
          "indexed": true,
          "internalType": "address",
          "name": "previousOwner",
          "type": "address"
        },
        {
          "indexed": true,
          "internalType": "address",
          "name": "newOwner",
          "type": "address"
        }
      ],
      "name": "OwnershipTransferred",
      "type": "event"
    },
    {
      "anonymous": false,
      "inputs": [
        {
          "indexed": false,
          "internalType": "address",
          "name": "account",
          "type": "address"
        }
      ],
      "name": "Paused",
      "type": "event"
    },
    {
      "anonymous": false,
      "inputs": [
        {
          "indexed": true,
          "internalType": "address",
          "name": "from",
          "type": "address"
        },
        {
          "indexed": true,
          "internalType": "address",
          "name": "to",
          "type": "address"
        },
        {
          "indexed": false,
          "internalType": "uint256",
          "name": "value",
          "type": "uint256"
        }
      ],
      "name": "Transfer",
      "type": "event"
    },
    {
      "anonymous": false,
      "inputs": [
        {
          "indexed": false,
          "internalType": "address",
          "name": "account",
          "type": "address"
        }
      ],
      "name": "Unpaused",
      "type": "event"
    },
    {
      "inputs": [
        {
          "internalType": "address",
          "name": "owner",
          "type": "address"
        },
        {
          "internalType": "address",
          "name": "spender",
          "type": "address"
        }
      ],
      "name": "allowance",
      "outputs": [
        {
          "internalType": "uint256",
          "name": "",
          "type": "uint256"
        }
      ],
      "stateMutability": "view",
      "type": "function"
    },
    {
      "inputs": [
        {
          "internalType": "address",
          "name": "spender",
          "type": "address"
        },
        {
          "internalType": "uint256",
          "name": "amount",
          "type": "uint256"
        }
      ],
      "name": "approve",
      "outputs": [
        {
          "internalType": "bool",
          "name": "",
          "type": "bool"
        }
      ],
      "stateMutability": "nonpayable",
      "type": "function"
    },
    {
      "inputs": [
        {
          "internalType": "address",
          "name": "account",
          "type": "address"
        }
      ],
      "name": "balanceOf",
      "outputs": [
        {
          "internalType": "uint256",
          "name": "",
          "type": "uint256"
        }
      ],
      "stateMutability": "view",
      "type": "function"
    },
    {
      "inputs": [
        {
          "internalType": "uint256",
          "name": "_amount",
          "type": "uint256"
        }
      ],
      "name": "burn",
      "outputs": [],
      "stateMutability": "nonpayable",
      "type": "function"
    },
    {
      "inputs": [],
      "name": "decimals",
      "outputs": [
        {
          "internalType": "uint8",
          "name": "",
          "type": "uint8"
        }
      ],
      "stateMutability": "view",
      "type": "function"
    },
    {
      "inputs": [
        {
          "internalType": "address",
          "name": "spender",
          "type": "address"
        },
        {
          "internalType": "uint256",
          "name": "subtractedValue",
          "type": "uint256"
        }
      ],
      "name": "decreaseAllowance",
      "outputs": [
        {
          "internalType": "bool",
          "name": "",
          "type": "bool"
        }
      ],
      "stateMutability": "nonpayable",
      "type": "function"
    },
    {
      "inputs": [
        {
          "internalType": "address",
          "name": "_user",
          "type": "address"
        }
      ],
      "name": "freezing",
      "outputs": [],
      "stateMutability": "nonpayable",
      "type": "function"
    },
    {
      "inputs": [
        {
          "internalType": "address",
          "name": "spender",
          "type": "address"
        },
        {
          "internalType": "uint256",
          "name": "addedValue",
          "type": "uint256"
        }
      ],
      "name": "increaseAllowance",
      "outputs": [
        {
          "internalType": "bool",
          "name": "",
          "type": "bool"
        }
      ],
      "stateMutability": "nonpayable",
      "type": "function"
    },
    {
      "inputs": [
        {
          "internalType": "address",
          "name": "_user",
          "type": "address"
        }
      ],
      "name": "isFreezed",
      "outputs": [
        {
          "internalType": "bool",
          "name": "",
          "type": "bool"
        }
      ],
      "stateMutability": "view",
      "type": "function"
    },
    {
      "inputs": [
        {
          "internalType": "address",
          "name": "_account",
          "type": "address"
        },
        {
          "internalType": "uint256",
          "name": "_amount",
          "type": "uint256"
        }
      ],
      "name": "mint",
      "outputs": [],
      "stateMutability": "nonpayable",
      "type": "function"
    },
    {
      "inputs": [],
      "name": "name",
      "outputs": [
        {
          "internalType": "string",
          "name": "",
          "type": "string"
        }
      ],
      "stateMutability": "view",
      "type": "function"
    },
    {
      "inputs": [],
      "name": "owner",
      "outputs": [
        {
          "internalType": "address",
          "name": "",
          "type": "address"
        }
      ],
      "stateMutability": "view",
      "type": "function"
    },
    {
      "inputs": [],
      "name": "pause",
      "outputs": [],
      "stateMutability": "nonpayable",
      "type": "function"
    },
    {
      "inputs": [],
      "name": "paused",
      "outputs": [
        {
          "internalType": "bool",
          "name": "",
          "type": "bool"
        }
      ],
      "stateMutability": "view",
      "type": "function"
    },
    {
      "inputs": [],
      "name": "renounceOwnership",
      "outputs": [],
      "stateMutability": "nonpayable",
      "type": "function"
    },
    {
      "inputs": [],
      "name": "symbol",
      "outputs": [
        {
          "internalType": "string",
          "name": "",
          "type": "string"
        }
      ],
      "stateMutability": "view",
      "type": "function"
    },
    {
      "inputs": [],
      "name": "totalSupply",
      "outputs": [
        {
          "internalType": "uint256",
          "name": "",
          "type": "uint256"
        }
      ],
      "stateMutability": "view",
      "type": "function"
    },
    {
      "inputs": [
        {
          "internalType": "address",
          "name": "to",
          "type": "address"
        },
        {
          "internalType": "uint256",
          "name": "amount",
          "type": "uint256"
        }
      ],
      "name": "transfer",
      "outputs": [
        {
          "internalType": "bool",
          "name": "",
          "type": "bool"
        }
      ],
      "stateMutability": "nonpayable",
      "type": "function"
    },
    {
      "inputs": [
        {
          "internalType": "address",
          "name": "from",
          "type": "address"
        },
        {
          "internalType": "address",
          "name": "to",
          "type": "address"
        },
        {
          "internalType": "uint256",
          "name": "amount",
          "type": "uint256"
        }
      ],
      "name": "transferFrom",
      "outputs": [
        {
          "internalType": "bool",
          "name": "",
          "type": "bool"
        }
      ],
      "stateMutability": "nonpayable",
      "type": "function"
    },
    {
      "inputs": [
        {
          "internalType": "address",
          "name": "newOwner",
          "type": "address"
        }
      ],
      "name": "transferOwnership",
      "outputs": [],
      "stateMutability": "nonpayable",
      "type": "function"
    },
    {
      "inputs": [
        {
          "internalType": "address",
          "name": "_user",
          "type": "address"
        }
      ],
      "name": "unFreezing",
      "outputs": [],
      "stateMutability": "nonpayable",
      "type": "function"
    },
    {
      "inputs": [],
      "name": "unPause",
      "outputs": [],
      "stateMutability": "nonpayable",
      "type": "function"
    }
  ],
  "bytecode": "0x60806040523480156200001157600080fd5b506040516200154b3803806200154b83398101604081905262000034916200048c565b828262000041336200008e565b81516200005690600490602085019062000319565b5080516200006c90600590602084019062000319565b50506006805460ff1916905550620000853382620000de565b50505062000563565b600080546001600160a01b038381166001600160a01b0319831681178455604051919092169283917f8be0079c531659141344cd1fd0a4f28419497f9722a3daafe3b4186f6b6457e09190a35050565b6001600160a01b0382166200013a5760405162461bcd60e51b815260206004820152601f60248201527f45524332303a206d696e7420746f20746865207a65726f20616464726573730060448201526064015b60405180910390fd5b6200014860008383620001b5565b80600360008282546200015c9190620004ff565b90915550506001600160a01b0382166000818152600160209081526040808320805486019055518481527fddf252ad1be2c89b69c2b068fc378daa952ba7f163c4a11628f55a4df523b3ef910160405180910390a35050565b620001bf6200024f565b6001600160a01b038316600090815260076020526040902054839060ff16156200022c5760405162461bcd60e51b815260206004820152601a60248201527f5472616e7366657261626c653a20667265657a65642075736572000000000000604482015260640162000131565b620002448484846200029960201b620005e61760201c565b50505050565b505050565b60065460ff1615620002975760405162461bcd60e51b815260206004820152601060248201526f14185d5cd8589b194e881c185d5cd95960821b604482015260640162000131565b565b620002b18383836200024a60201b6200064c1760201c565b60065460ff16156200024a5760405162461bcd60e51b815260206004820152602a60248201527f45524332305061757361626c653a20746f6b656e207472616e736665722077686044820152691a5b19481c185d5cd95960b21b606482015260840162000131565b828054620003279062000526565b90600052602060002090601f0160209004810192826200034b576000855562000396565b82601f106200036657805160ff191683800117855562000396565b8280016001018555821562000396579182015b828111156200039657825182559160200191906001019062000379565b50620003a4929150620003a8565b5090565b5b80821115620003a45760008155600101620003a9565b634e487b7160e01b600052604160045260246000fd5b600082601f830112620003e757600080fd5b81516001600160401b0380821115620004045762000404620003bf565b604051601f8301601f19908116603f011681019082821181831017156200042f576200042f620003bf565b816040528381526020925086838588010111156200044c57600080fd5b600091505b8382101562000470578582018301518183018401529082019062000451565b83821115620004825760008385830101525b9695505050505050565b600080600060608486031215620004a257600080fd5b83516001600160401b0380821115620004ba57600080fd5b620004c887838801620003d5565b94506020860151915080821115620004df57600080fd5b50620004ee86828701620003d5565b925050604084015190509250925092565b600082198211156200052157634e487b7160e01b600052601160045260246000fd5b500190565b600181811c908216806200053b57607f821691505b602082108114156200055d57634e487b7160e01b600052602260045260246000fd5b50919050565b610fd880620005736000396000f3fe608060405234801561001057600080fd5b50600436106101425760003560e01c806370a08231116100b857806395d89b411161007c57806395d89b41146102a8578063a457c2d7146102b0578063a9059cbb146102c3578063dd62ed3e146102d6578063f2fde38b146102e9578063f7b188a5146102fc57600080fd5b806370a0823114610228578063715018a6146102515780638111f24e146102595780638456cb59146102855780638da5cb5b1461028d57600080fd5b806324f86ee41161010a57806324f86ee4146101c2578063313ce567146101d557806339509351146101e457806340c10f19146101f757806342966c681461020a5780635c975abb1461021d57600080fd5b806306fdde0314610147578063095ea7b3146101655780631576c3d81461018857806318160ddd1461019d57806323b872dd146101af575b600080fd5b61014f610304565b60405161015c9190610dfc565b60405180910390f35b610178610173366004610e6d565b610396565b604051901515815260200161015c565b61019b610196366004610e97565b6103ae565b005b6003545b60405190815260200161015c565b6101786101bd366004610eb9565b6103da565b61019b6101d0366004610e97565b6103fe565b6040516012815260200161015c565b6101786101f2366004610e6d565b610427565b61019b610205366004610e6d565b610449565b61019b610218366004610ef5565b61045f565b60065460ff16610178565b6101a1610236366004610e97565b6001600160a01b031660009081526001602052604090205490565b61019b610474565b610178610267366004610e97565b6001600160a01b031660009081526007602052604090205460ff1690565b61019b610488565b6000546040516001600160a01b03909116815260200161015c565b61014f610498565b6101786102be366004610e6d565b6104a7565b6101786102d1366004610e6d565b610527565b6101a16102e4366004610f0e565b610535565b61019b6102f7366004610e97565b610560565b61019b6105d6565b60606004805461031390610f41565b80601f016020809104026020016040519081016040528092919081815260200182805461033f90610f41565b801561038c5780601f106103615761010080835404028352916020019161038c565b820191906000526020600020905b81548152906001019060200180831161036f57829003601f168201915b5050505050905090565b6000336103a4818585610651565b5060019392505050565b6103b6610775565b6001600160a01b03166000908152600760205260409020805460ff19166001179055565b6000336103e88582856107cf565b6103f3858585610849565b506001949350505050565b610406610775565b6001600160a01b03166000908152600760205260409020805460ff19169055565b6000336103a481858561043a8383610535565b6104449190610f7c565b610651565b610451610775565b61045b82826109ff565b5050565b610467610775565b6104713382610acc565b50565b61047c610775565b6104866000610c0c565b565b610490610775565b610486610c5c565b60606005805461031390610f41565b600033816104b58286610535565b90508381101561051a5760405162461bcd60e51b815260206004820152602560248201527f45524332303a2064656372656173656420616c6c6f77616e63652062656c6f77604482015264207a65726f60d81b60648201526084015b60405180910390fd5b6103f38286868403610651565b6000336103a4818585610849565b6001600160a01b03918216600090815260026020908152604080832093909416825291909152205490565b610568610775565b6001600160a01b0381166105cd5760405162461bcd60e51b815260206004820152602660248201527f4f776e61626c653a206e6577206f776e657220697320746865207a65726f206160448201526564647265737360d01b6064820152608401610511565b61047181610c0c565b6105de610775565b610486610cb6565b60065460ff161561064c5760405162461bcd60e51b815260206004820152602a60248201527f45524332305061757361626c653a20746f6b656e207472616e736665722077686044820152691a5b19481c185d5cd95960b21b6064820152608401610511565b505050565b6001600160a01b0383166106b35760405162461bcd60e51b8152602060048201526024808201527f45524332303a20617070726f76652066726f6d20746865207a65726f206164646044820152637265737360e01b6064820152608401610511565b6001600160a01b0382166107145760405162461bcd60e51b815260206004820152602260248201527f45524332303a20617070726f766520746f20746865207a65726f206164647265604482015261737360f01b6064820152608401610511565b6001600160a01b0383811660008181526002602090815260408083209487168084529482529182902085905590518481527f8c5be1e5ebec7d5bd14f71427d1e84f3dd0314c0f7b2291e5b200ac8c7c3b925910160405180910390a3505050565b6000546001600160a01b031633146104865760405162461bcd60e51b815260206004820181905260248201527f4f776e61626c653a2063616c6c6572206973206e6f7420746865206f776e65726044820152606401610511565b60006107db8484610535565b9050600019811461084357818110156108365760405162461bcd60e51b815260206004820152601d60248201527f45524332303a20696e73756666696369656e7420616c6c6f77616e63650000006044820152606401610511565b6108438484848403610651565b50505050565b6001600160a01b0383166108ad5760405162461bcd60e51b815260206004820152602560248201527f45524332303a207472616e736665722066726f6d20746865207a65726f206164604482015264647265737360d81b6064820152608401610511565b6001600160a01b03821661090f5760405162461bcd60e51b815260206004820152602360248201527f45524332303a207472616e7366657220746f20746865207a65726f206164647260448201526265737360e81b6064820152608401610511565b61091a838383610cef565b6001600160a01b038316600090815260016020526040902054818110156109925760405162461bcd60e51b815260206004820152602660248201527f45524332303a207472616e7366657220616d6f756e7420657863656564732062604482015265616c616e636560d01b6064820152608401610511565b6001600160a01b0380851660008181526001602052604080822086860390559286168082529083902080548601905591517fddf252ad1be2c89b69c2b068fc378daa952ba7f163c4a11628f55a4df523b3ef906109f29086815260200190565b60405180910390a3610843565b6001600160a01b038216610a555760405162461bcd60e51b815260206004820152601f60248201527f45524332303a206d696e7420746f20746865207a65726f2061646472657373006044820152606401610511565b610a6160008383610cef565b8060036000828254610a739190610f7c565b90915550506001600160a01b0382166000818152600160209081526040808320805486019055518481527fddf252ad1be2c89b69c2b068fc378daa952ba7f163c4a11628f55a4df523b3ef910160405180910390a35050565b6001600160a01b038216610b2c5760405162461bcd60e51b815260206004820152602160248201527f45524332303a206275726e2066726f6d20746865207a65726f206164647265736044820152607360f81b6064820152608401610511565b610b3882600083610cef565b6001600160a01b03821660009081526001602052604090205481811015610bac5760405162461bcd60e51b815260206004820152602260248201527f45524332303a206275726e20616d6f756e7420657863656564732062616c616e604482015261636560f01b6064820152608401610511565b6001600160a01b03831660008181526001602090815260408083208686039055600380548790039055518581529192917fddf252ad1be2c89b69c2b068fc378daa952ba7f163c4a11628f55a4df523b3ef910160405180910390a3505050565b600080546001600160a01b038381166001600160a01b0319831681178455604051919092169283917f8be0079c531659141344cd1fd0a4f28419497f9722a3daafe3b4186f6b6457e09190a35050565b610c64610d6d565b6006805460ff191660011790557f62e78cea01bee320cd4e420270b5ea74000d11b0c9f74754ebdbfc544b05a258610c993390565b6040516001600160a01b03909116815260200160405180910390a1565b610cbe610db3565b6006805460ff191690557f5db9ee0a495bf2e6ff9c91a7834c1ba4fdd244a5e8aa4e537bd38aeae4b073aa33610c99565b610cf7610d6d565b6001600160a01b038316600090815260076020526040902054839060ff1615610d625760405162461bcd60e51b815260206004820152601a60248201527f5472616e7366657261626c653a20667265657a656420757365720000000000006044820152606401610511565b6108438484846105e6565b60065460ff16156104865760405162461bcd60e51b815260206004820152601060248201526f14185d5cd8589b194e881c185d5cd95960821b6044820152606401610511565b60065460ff166104865760405162461bcd60e51b815260206004820152601460248201527314185d5cd8589b194e881b9bdd081c185d5cd95960621b6044820152606401610511565b600060208083528351808285015260005b81811015610e2957858101830151858201604001528201610e0d565b81811115610e3b576000604083870101525b50601f01601f1916929092016040019392505050565b80356001600160a01b0381168114610e6857600080fd5b919050565b60008060408385031215610e8057600080fd5b610e8983610e51565b946020939093013593505050565b600060208284031215610ea957600080fd5b610eb282610e51565b9392505050565b600080600060608486031215610ece57600080fd5b610ed784610e51565b9250610ee560208501610e51565b9150604084013590509250925092565b600060208284031215610f0757600080fd5b5035919050565b60008060408385031215610f2157600080fd5b610f2a83610e51565b9150610f3860208401610e51565b90509250929050565b600181811c90821680610f5557607f821691505b60208210811415610f7657634e487b7160e01b600052602260045260246000fd5b50919050565b60008219821115610f9d57634e487b7160e01b600052601160045260246000fd5b50019056fea264697066735822122080aa0b03b447f1b9c77957b10192e605fc3f543d6679c546218eab62f05fbac064736f6c634300080a0033",
  "linkReferences": {},
  "deployedLinkReferences": {}
}